:020000040800F2
:1000000070070020A10100083F280008F122000825
:100010003D2800082D1300083B2C000800000000BC
:100020000000000000000000000000005B2A000843
:100030002F13000800000000592A00085D2A00085C
:10004000BB010008BB010008BB010008BB010008A0
:10005000BB010008BB010008BB010008BB01000890
:10006000BB010008BB010008BB010008BB01000880
:10007000BB010008BB010008BB010008BB01000870
:10008000BB010008BB010008BB010008BB01000860
:10009000BB010008BB010008BB010008BB01000850
:1000A000BB010008BB010008BB010008BB01000840
:1000B000BB010008BB010008BB010008BB01000830
:1000C000BB010008BB010008BB010008BB01000820
:1000D000BB010008BB010008BB010008BB01000810
:1000E00031130008BB010008BB01000800F002F852
:1000F00000F047F80AA090E8000C82448344AAF17B
:100100000107DA4501D100F03CF8AFF2090EBAE878
:100110000F0013F0010F18BFFB1A43F0010318473B
:10012000F038000010390000103A24BF78C878C1B8
:10013000FAD8520724BF30C830C144BF04680C60ED
:10014000704700000023002400250026103A28BF35
:1001500078C1FBD8520728BF30C148BF0B60704739
:10016000662903F08C80002070471FB500F01AFB51
:1001700004000020002102F061FEE0601FBD10B508
:1001800010BD00F02BFC1146FFF7EFFF02F090FDD1
:1001900000F049FC03B4FFF7F2FF03BC02F079FD65
:1001A0000948804709480047FEE7FEE7FEE7FEE70B
:1001B000FEE7FEE7FEE7FEE7FEE7FEE70448054947
:1001C000054A064B70470000BF2A0008ED000008F2
:1001D00070010020700700207003002070030020D1
:1001E000704700000FB4044910B503AA029800F04C
:1001F000C7FA10BC5DF814FB040000202DE9F0479D
:100200004FF0000A89460446C0F820A02046E16865
:100210008847002876D0252806D0D4E901219047C8
:10022000206A401C2062F1E7E168204600258847EB
:10023000C4F81CA006460027C4F818A02A2E09D02E
:10024000304602F01FFD38B304EB8708303EC8F893
:10025000186019E059F8041B204604EB87029161ED
:10026000E1688847012F064618D1E069002820DAA6
:1002700025F020051DE0D8F8180000EB800006EB03
:1002800040003038C8F818002046E1688847064624
:1002900002F0F8FC0028EED1012F0AD02E2E08D152
:1002A0002046E16888477F1C0646022F45F020055E
:1002B000C4DBA069002803DA404245F00105A061D3
:1002C000E80701D025F01005B6B1A6F141001928C4
:1002D00002D8203645F400654A463146204625605E
:1002E0004D46FFF73DFF58B1012806D0ED1D25F022
:1002F000070000F1080989E704E005F1040985E732
:1003000030468AE7206ABDE8F0874FF0000200B56A
:10031000134694469646203922BFA0E80C50A0E828
:100320000C50B1F12001BFF4F7AF090728BFA0E8D6
:100330000C5048BF0CC05DF804EB890028BF40F8A2
:10034000042B08BF704748BF20F8022B11F0804FE4
:1003500018BF00F8012B704770477047704770470F
:1003600070472DE9FF4F0C461E464FF0FF378BB00C
:10037000D2E90001DDF860800A908A46C1F30A558F
:1003800005B93D46002108464FF00000BAF1000FC4
:1003900000F4400005DA00EB80004FF4400101EA70
:1003A00050004FEA9059B9F1010F00DDB9460A98A3
:1003B00050EA4A000ED044F61050A5F2FF354543EE
:1003C0002F14B8F1000F1ED07542291E1EDDC9F191
:1003D00000021CE0B8F1010F4FF0000001D0302105
:1003E00003E0F24305E02154401CB042FBDB304601
:1003F0000022002121540B99C1F80880C1E9002096
:100400000FB0BDE8F08FBD1B6D1CDEE74A4600DA79
:10041000694206A800F068FA06AB93E8070003AB50
:1004200083E8070050460A9900F046FB8DE8070074
:10043000A0F500501F3800900398002D0ADD42F20D
:100440001F014A460844002303A90390684600F0B0
:10045000AFFD09E0A0F500504A461F38002303A96C
:100460000390684600F0B9FD8DE807000004000C19
:1004700003D04FF0FF30410800E01046B8F1000F04
:1004800003D00022009215461EE0751E05D400F030
:100490008DF9303262556D1EF9D5B34601220843FD
:1004A00002D000227F1C04E02078302801D10022F5
:1004B0007F1E002A099784D01DE0112D07DA00F075
:1004C00075F9303262556D1C50EA0102F5D10843CE
:1004D00002D00098C8B10EE00021681E05E0235C40
:1004E000625C63542254401E491C8142F7DBAB46D8
:1004F000A81B401E0990002004F80B000B98099AD5
:10050000C0F80880C0E9002B7AE711264FF00008F8
:1005100057E72DE9F04F88460446D21D22F0070127
:1005200091B0D1E90001CDE90A0102F087FB024652
:100530000B98C00F01D02D2007E02068810701D55E
:100540002B2002E0202101EAC000032A099001D0FB
:10055000072A05DB03464146204600F085F90BE1FA
:100560002078800601D5E06900E00620B8F1650F2B
:10057000814606D0B8F1660F18D0B8F1670F70D178
:1005800031E00020B9F1110F009001DB112301E0EF
:1005900009F101030AAA01A90CA8FFF7E2FEDDE9AF
:1005A0000C70002609F10105834647E001204B4607
:1005B00000904FF000470AAA01A90CA8FFF7D1FE4E
:1005C000DDE90DB00C995D46002610B909F1010076
:1005D0000D18B9EB050003D4C0F1FF3609F1010590
:1005E000A5EB09002BE0B9F1010F01DA4FF0010989
:1005F0000020B9F1110F0090484601DD112300E001
:1006000003460AAA01A90CA8FFF7ABFEDDE90C70AE
:100610004D4600268346207800070AD4AB4500DA11
:100620005D4601A8012D04DD411911F8011C302996
:1006300007D04F4502DA17F1040F04DA0120824691
:100640000FE06D1EEEE7002F02DCED1B3E4403E0E1
:10065000781CA84200DD7D1CB81B00F1010A4FF098
:1006600000472078000703D4AA4501DB4FF0FF3A8A
:100670000021B7F1004F0DF143088DF8431024D04D
:1006800002202B23002F01DA7F422D230A21021E94
:10069000A0F1010000DC5FB197FBF1FC97FBF1F2E8
:1006A00001FB1C7C17460CF1300C08F801CDEEE77D
:1006B000A8F1010003702188090501D5452100E05A
:1006C0006521A0F1010800F8011C09980FA9A1EB10
:1006D0000807FF1D00B10120411901EBEA70A16973
:1006E0003844081A401EA0612078C00602D4204673
:1006F000AFF30080099828B1D4E901219047206A1E
:10070000401C20622078C00622D52046AFF300802E
:100710001EE0002E04DBB34502DD01A8805D00E091
:100720003020D4E901219047206A401C2062761CC9
:10073000AAF101005FEA000A0AD100F033F8C068AC
:100740000168405CD4E901219047206A401C206286
:10075000281EA5F10105DCDC07E0D4E9012118F829
:10076000010B9047206A401C2062381EA7F1010748
:10077000F3DC2046AFF30080032011B041E6000017
:10078000074B70B50D467B4400F05BF804462846E5
:1007900000F01CF910B14FF0FF3070BD204670BD65
:1007A0000B250000004870473001002030B5B0F143
:1007B0000A024FEA900E71F100034EEA817EB0EB1F
:1007C0000E0061EB91014FEA101E4EEA017E10EB24
:1007D0000E0041EB11114FEA102E4EEA016E10EBA4
:1007E0000E0041EB11214FEA104E4EEA014E10EB84
:1007F0000E0041EB1141401841F100014FEAD000D9
:1008000040EA41704FEAD10110EB80054FEA8104C4
:1008100044EA907444EB01046D1944EB0404521B48
:10082000A3414FF0000348BF0A3200D530BD401C41
:1008300041F1000130BD000001694A1C02610878E5
:10084000704700B58FB0CDE9013100210591054910
:100850007944CDE9031011466846FFF7CFFC0FB08D
:1008600000BD0000E5FFFFFF2DE9F0411F460446F3
:1008700003260168072A01F4006004DB08B116A50D
:1008800005E016A503E008B115A500E015A521F0C7
:1008900010002060A069C01EA0610FB1401EA061C1
:1008A0002046AFF300804FB1D4E90121384690478C
:1008B000206A401C2062C01C206206E0206AFAE721
:1008C000D4E9012115F8010B9047761EF8D2204695
:1008D000AFF30080BDE8F0814E414E006E616E00C6
:1008E000494E4600696E66002DE9F047814616467E
:1008F0008AB0354878440DC88DE80D0032487844F8
:10090000801C03AC0DC884E80D0041F69B30084400
:10091000372190FBF1F290FBF1F5A5F1800501FB89
:1009200012041B3C02D56442012000E00020DFF8E5
:1009300098A080460027FA44AAF1BE0A0EE0E0071C
:100940000AD03246684607EB470101230AEB8101D2
:1009500000F043FB8DE8070064107F1C002CEED1F3
:10096000194F7F44AE3F19E0E80715D007EB04109C
:100970000DF1180A90E80E008AE80E00C068F042F7
:1009800001D1981908903246012306A903A800F066
:1009900024FB03AB83E807006D10641C002DE3D13A
:1009A0004FF0010332466946B8F1000F03A802D0A8
:1009B00000F0FEFA01E000F010FBC9E90001C9F8FF
:1009C00008200AB0BDE8F08700310000007B00F08D
:1009D0008000704700487047100100207546FFF7FF
:1009E000F9FFAE4605006946534620F007008546EC
:1009F00018B020B5FFF7E2FBBDE820404FF000063D
:100A00004FF000074FF000084FF0000B21F00701F6
:100A1000AC46ACE8C009ACE8C009ACE8C009ACE839
:100A2000C0098D46704710B50446AFF300802046DC
:100A3000BDE81040FFF7AEBB4FF0013C50F8042B6F
:100A400051F8043B9A4221D1A2EB0C03934313EAE1
:100A5000CC1317D150F8042B51F8043B9A4215D10E
:100A6000A2EB0C03934313EACC130BD150F8042BE5
:100A700051F8043B9A4209D1A2EB0C03934313EAC9
:100A8000CC13DBD04FF00000704700BFD01A01BA82
:100A9000B1FA81F101F0180122FA01F0CB40C1F165
:100AA0002001DBB2C0B2C01A2CFA01F3D11A914373
:100AB00011EAC311E6D170475FEA400C08BF91F01C
:100AC000000F4FEA8C234FEAC12243EA51514FEA0B
:100AD0001C5018BF00F5F0404FEA300018BF41F03D
:100AE00000415FEA6C5C00F02980BCF1FF3F08BF69
:100AF00040F080407047130C06BF12044FF0100CFA
:100B00004FF0000C130E04BF12020CF1080C130F6F
:100B100004BF12010CF1040C930F04BF92000CF1FE
:100B2000020CD30F04BF52000CF1010C11464FF020
:100B30000002A0F11F00A0EB0C00704711F0004F65
:100B400008BF704731F000413FF4D5AF0B0C06BF32
:100B500009044FF0100C4FF0000C0B0E04BF0902FB
:100B60000CF1080C0B0F04BF09010CF1040C8B0FE6
:100B700004BF89000CF1020CCB0F04BF49000CF13B
:100B8000010CCCF12003A0EB0C0022FA03F302FAD3
:100B90000CF241EA030100F10100704720F07F4CA4
:100BA00080EA030023F07F47ACEB070303F57C5397
:100BB00000F0004003F1FF032DE980494FEA154B97
:100BC00009B44FEA144325EA0B4E24EA03480FF216
:100BD000042606EB132749083E785FEA320203FB3E
:100BE0000667C7F5000707FB06F64FEA54374FEADA
:100BF000D64606F1020607FB066CCCF1005C4FEA14
:100C00001C472CEA074C07FB06F40CFB06F504EB2B
:100C100015464FEA961634BF00204FF000404FEAC9
:100C2000D13706FB07FC4FEA1C4C0CFB0BF7D21B21
:100C300003FB0CF761EB07010CFB0EF7B0EB074071
:100C400072EB17420CFB08F734BFA2EB0742B2EB82
:100C5000074261EB17414FEA0C444FEA910706FB4C
:100C600007FC4FEA1C4C0CFB0BF7B0EBC74072EBD8
:100C7000573203FB0CF734BFA2EBC742B2EBC742BB
:100C800061EB57310CFB0EF7B0EBC70072EB5772FC
:100C90000CFB08F734BFA2EBC702B2EBC70261EB53
:100CA0005771039F4FEA816141EA921104EBCC0432
:100CB0004FEAD1374FEA826206FB07FC42EA901204
:100CC0004FEA80604FEA1C4C0CFB0BF7D21B03FB76
:100CD0000CF761EB07010CFB0EF7B0EB074072EB72
:100CE00017420CFB08F734BFA2EB0742B2EB0742F6
:100CF00061EB17414FEA8C554FEA910704EB9C24B6
:100D000006FB07FC4FEA1C4C0CFB0BF7B0EBC74093
:100D100072EB573203FB0CF734BFA2EBC742B2EBC6
:100D2000C74261EB57310CFB0EF7B0EBC70072EB1B
:100D300057720CFB08F734BFA2EBC702B2EBC70235
:100D400061EB577115EB4C254FEA816141EA921135
:100D50004FEA82624FEAD13742EA901206FB07FC63
:100D600044F100044FEA80604FEA1C4C0CFB0BF787
:100D7000D21B03FB0CF761EB07010CFB0EF7B0EB8A
:100D8000074072EB17420CFB08F734BFA2EB074297
:100D9000B2EB074261EB174115EB1C154FEA8131AD
:100DA00041EA92414FEA823242EA90424FEA803071
:100DB0004FEA0C7644F1000448EA03434EEA0B483C
:100DC0004FF0000EB2EB080C71EB030724BF624634
:100DD00039464EEB0E0E4FF0000B001852414941C0
:100DE0004BEB0B0BB2EB080C71EB03077BF1000B29
:100DF00024BF624639464EEB0E0E4FF0000B001832
:100E0000524149414BEB0B0BB2EB080C71EB030762
:100E10007BF1000B24BF624639464EEB0E0E51EAC1
:100E2000020718BF46F0010616EB0E7655F10002D8
:100E300054F1000103D5BDE88901BDE80088BDE893
:100E40008901BDE80048B619524141EB0101A3F107
:100E50000103704780807F7E7D7C7B7A797877760E
:100E600076757473727171706F6E6E6D6C6C6B6A87
:100E70006A69686867666665646463636261616025
:100E8000605F5F5E5E5D5D5C5C5B5B5A5A595958A2
:100E9000585757565655555554545353525252510C
:100EA000515050504F4F4F4E4E4D4D4D4C4C4C4B62
:100EB0004B4B4A4A4A4949494848484747474746A9
:100EC00046464545454444444443434343424242E5
:100ED00042414141002B9C4630D477002BD01CB5B9
:100EE0004FEA370703B44FF010004FF01001BAF18A
:100EF000000F06D0BCF1000FDCBF40F0080040F04E
:100F000008014FF000000FBCBDE810400BF1010BD1
:100F1000BBF1010F08BF5FEA170722BF12F1010200
:100F200011F101014FF0004143F1000300F00040D6
:100F300043EA00007047F9D35708D0E746EA06466F
:100F400013F1400F4FEA16461FDD13F1200FDFBFEC
:100F500016430A46002120335B42BED0C3F120076E
:100F600046EA064602FA07F74FEA164646EA070639
:100F7000C3F1200722FA03F201FA07F721FA03F17D
:100F80004FF0000342EA0702A7E746EA020646EAF4
:100F900006464FEA164646EA0106BCBF46EA064642
:100FA000360C4FF000034FF000024FF0000194E7C1
:100FB0002DE9804C9A46934670B491E8380007C8F2
:100FC00031EA400C48BF34EA430C03D5FFF7E6FD95
:100FD000FFF780FFF0BCBDE8008C2DE9804C9A46FD
:100FE000934670B491E8380007C810F0804F08BFEE
:100FF00013F0804F03D100F005F8FFF76BFFF0BC52
:10100000BDE8008C20F07F4780EA030023F07F4C8E
:1010100007EB0C03A3F57C5300F00040A3F1FE03A3
:1010200092F0000F00F0B38095F0000F00F0778091
:101030002DE901494FEA11404FEA144621EA0048E0
:1010400000FB06FC24EA064708FB06F607FB08F847
:1010500000FB07F718EB06484CEB164C4FEA124B17
:1010600018EB07484FEA15464CEB174022EA0B4EA7
:101070000BFB06FC25EA06470EFB06F607FB0EFEF9
:101080000BFB07F71EEB064E4CEB164C4FF0000621
:101090001EEB074E4CEB174B18EB0B0840F1000012
:1010A00018EB0E0B58EB000840F100008F1A4FF0C0
:1010B00000013CBFC943661B14BFB5EB040C002103
:1010C0003CBFC943F61B4FEA17444EEA8E0E27EA8F
:1010D00004454FEA1C4704FB07622CEA074C05FB5A
:1010E00007F70CFB05F604FB0CFC16EB074642EB7E
:1010F000174216EB0C4642EB1C421BEB060658EB64
:101100000202414146EA9E0601D5BDE80189B619B1
:10111000524141EB0101A3F10103BDE801894FEA0E
:1011200014454FEA114724EA054621EA074C05FB1E
:1011300007F406FB07F70CFB06F105FB0CFC11EBB3
:10114000074144EB17444FEA124711EB0C4144EBC3
:101150001C4422EA074C05FB07F206FB07F70CFBD1
:1011600006F605FB0CFC16EB074642EB174216EBA6
:101170000C4642EB1C456A1854F1000148BF704709
:10118000B619524141EB0101A3F10103704795F0FB
:10119000000F37D04FEA11424FEA144721EA0246C6
:1011A00024EA074C02FB07F106FB07F70CFB06F4E9
:1011B00002FB0CFC14EB074441EB17414FEA1547C7
:1011C00014EB0C4441EB1C4125EA074C02FB07F5EC
:1011D00006FB07F70CFB06F602FB0CFC16EB0746BA
:1011E00045EB174516EB0C4645EB1C42121951F125
:1011F000000148BF7047B619524141EB0101A3F10C
:10120000010370474FEA14454FEA114724EA0546A7
:1012100021EA074C05FB07F106FB07F70CFB06F27A
:101220004FF0000605FB0CFC12EB074241EB1741A7
:1012300012EB0C4251EB1C4148BF7047921841EB36
:101240000101A3F1010370477CB5E32000F04EF8E3
:101250000446E52000F04AF80546204601F0BAFEB3
:101260006FF00F06314602F03EF8124901F0C6FE5B
:10127000114901F02BFE114C2060284601F0AAFE16
:10128000314602F030F80E4901F0B8FE0D4901F088
:101290001DFE6060606801F0EDFD05460E462068A9
:1012A00001F0E8FDCDE9005602460B4606A0FEF728
:1012B00099FF7CBD52B82F4366663BC218000020E0
:1012C0000000FA420000C0C074656D706572617400
:1012D0007572653A252E32662C2068756D696469D1
:1012E00074793A252E32660A0000000011B583B0E9
:1012F00000206424CDE90040012303AA80210A488C
:1013000000F042FB0A2000F019F8022301AA812113
:101310000548009400F010FA0A2000F00FF8BDF81C
:10132000040004B040BA10BD74000020FEE770470E
:101330004FF4006000F034B872B6FEE770B50446B2
:1013400000F030F90546601C02D0044800780444DF
:1013500000F028F9401BA042FAD370BD080000201D
:1013600070B505460520FFF7E9FF4FF40064A5427C
:1013700010D1094E2146304600F00EF9074D08B94C
:10138000012028702146304600F006F9012801D1DD
:101390000020287070BD00000008014000000020FF
:1013A000044910B50A68024202D00860FFF7D8FF6E
:1013B00010BD0000140401402DE9F84FDFF8B8918A
:1013C0000024A9F1040B23460F2709F1040AABF10D
:1013D000040EC9E00125A5402A40AA427DD1674EEE
:1013E000D1F804C0ACEB0608B44532D014DCBCF133
:1013F000030F3AD009DCBCF1000F2AD0BCF1010F79
:101400001CD0BCF1020F31D11DE0BCF1110F17D07F
:10141000BCF1120F2AD119E0B8F5881F19D006DCEB
:10142000B8F5803F15D0B8F5801F1FD111E0B8F591
:10143000001F0ED0B8F5041F18D10AE0CB6815E0E4
:10144000CB681B1D12E0CB6808330FE0CB680C3370
:101450000CE08B682BB1012B4FF0080303D04561E2
:1014600004E0042302E0056100E00023FF2A01D824
:10147000064601E000F104064FEA840501D9A5F112
:101480002005D6F8008007FA05FC28EA0C0803FAC4
:1014900005F548EA0508C6F800804D68ED0062D5FC
:1014A000374DAE6946F00106AE61AD6924F0030622
:1014B00005F001050095334D06EB050CDCF80850EE
:1014C000A607360F07FA06F825EA0805DFF8B88000
:1014D000404503D14FF0000817E044E0DFF8AC804E
:1014E000404502D14FF001080FE0DFF8A4804045ED
:1014F00002D14FF0020808E0DFF89880404502D1A1
:101500004FF0030801E04FF0040808FA06F848EA33
:101510000508CCF808804D68D9F80060ED024D460A
:1015200001D5164300E096432E604D68DAF800605E
:10153000AD02554601D5164300E096432E604D6836
:10154000DBF80060AD035D4601D5164300E096432D
:101550002E604D68DEF80060ED03754601D5164338
:1015600000E096432E60641C0D682A46E5407FF437
:1015700031AFBDE8F88F00000804014000001110F1
:10158000001002400000014000080140000C014032
:1015900000100140001401408068084000D0012084
:1015A0007047000001488068704700000800002074
:1015B00070B5040025D094F83D00002520B984F8CA
:1015C0003C50204600F076FA242084F83D00206844
:1015D000016821F0010101602068016841F40041C7
:1015E00001602068016821F40041016000F0DCFB2B
:1015F0004D4A6168914201D84C4900E04C4988420B
:1016000001D2012070BD4B492368B0FBF1F15E6847
:1016100026F03F060E435E606368934206D94FF49E
:10162000967359434FF47A73B1FBF3F12368491C65
:101630001E6A26F03F06314319626168914210D854
:101640004900401EB0FBF1F2521CC2F30B02042A07
:1016500001D2042022E0B0FBF1F0401CC0F30B00EB
:101660001CE0A268F2B301EBC10303EB0116431EB9
:10167000B3FBF6F35B1C43F480431B0549D092B3E4
:1016800001EBC10202EB0111401EB0FBF1F0401C66
:10169000C0F30B0040F4804040F400402168CA6968
:1016A0004CF6FF739A431043C861D4E90710014315
:1016B0002068026822F0C00211430160D4E90301EE
:1016C00001432068826848F2FF339A4311438160E6
:1016D000D4E9050108432168CA6822F0FF021043DB
:1016E000C86001E00EE016E02068016841F00101E9
:1016F00001602564202084F83D00256384F83E5075
:10170000002070BD01EB4106431EB3FBF6F35B1CEA
:10171000B3E70120C2E701EB4101401EB0FBF1F04D
:10172000401CC0F30B00B7E7A086010080841E00B8
:1017300000093D0040420F002DE9F84F0025DDF87B
:101740002890984617468A4604460095FFF72AFFD8
:10175000064694F83D0020287AD1192301228649B3
:101760002046009600F0CCFE0028F5D194F83C000D
:1017700001286DD0012084F83C0020680168C90769
:1017800003D1016841F0010101602068016821F482
:1017900000610160222084F83D00102084F83E00A2
:1017A00025646762A4F82A80608D20857348E06212
:1017B00033464A465146204600F0B2FD00287CD10F
:1017C000208DDFF8BC81202768B1012814D00228C1
:1017D000206801681ED041F4806101602068416981
:1017E00080690090BBE020684169816900910168CF
:1017F00041F400710160B2E02068016821F4806169
:10180000016072B62068416981690091016841F404
:1018100000710AE041F40061016072B6206841691C
:1018200081690091016821F48061016062B696E0EF
:10183000032865D801280CD002284B464FF000023F
:101840004146204600960BD000F05AFEA8BB0CE0A3
:1018500090E032464946204600F0F8FE68BB71E051
:1018600000F04EFE48BB72B633E02068016821F4F8
:101870008061016072B620680069616A0870606A00
:10188000401C6062208D401E2085608D401E60855A
:101890003C4846F2A8110068B0FBF1F0C0EBC00074
:1018A00000EB80000090401E009007D02068406947
:1018B000C04340070DD50098F5E727E044F8305FB6
:1018C0006773A573206940F02000206162B625731C
:1018D0001CE02068016841F4007101602068006923
:1018E000616A0870606A401C6062218D491E218512
:1018F000618D491E618562B621680969017025E024
:1019000032464946204600F0A1FE10B10120BDE854
:10191000F88F20680069616A0870606A401C606224
:10192000208D401E81B22185608D401E608520681B
:101930004269D243520712D4032903D1016821F42A
:101940008061016020680069616A0870606A401CFB
:101950006062208D401E2085608D401E6085208D38
:1019600000287FF465AF84F83D7084F83E5084F819
:101970003C50CCE70220CAE7020010000000FFFF45
:1019800004000100140000202DE9F84F1F46904686
:101990008A460446DDF82890FFF704FE054694F8D1
:1019A0003D0020287FD1192301224049204600957F
:1019B00000F0A6FD002876D194F83C00012872D0F2
:1019C000012084F83C0020680168C90703D1016840
:1019D00041F0010101602068016821F400610160AB
:1019E000212084F83D00102084F83E000026266463
:1019F000C4F824806785608D20852D48E0622B46E1
:101A00004A465146204600F001FD90B920684169E0
:101A10008069009036E02A464946204600F04EFE96
:101A200050B1206C042804D12068016841F4007191
:101A300001600120BDE8F88F606A216800780861C4
:101A4000606A401C6062618D491E6185218D491E5E
:101A500089B2218522685369DB435B070BD451B1FE
:101A600000781061606A401C6062608D401E608575
:101A7000208D401E20852A464946204600F014FD50
:101A80000028CED1208D0028C5D154F83D0B016827
:101A900041F400710160202004F81E09E6776677A2
:101AA0000020C7E7FFE70220C4E7000002001000A3
:101AB0000000FFFF30B585B0002100910191029137
:101AC00003911E4D03681E4C122103221D48AB4298
:101AD00016D1A36943F00803A361A369039203F03D
:101AE00008030493C023CDE900316946FFF764FC85
:101AF000E06940F40010E061E06900F4001019E0D2
:101B0000114DAB4217D1A36943F00803A361A36948
:101B1000039203F0080304934FF44063CDE90031CE
:101B20006946FFF749FCE06940F48000E061E06944
:101B300000F48000049005B030BD00000054004067
:101B400000100240000C014000580040024881682B
:101B5000027811448160704708000020074810B5E2
:101B6000016841F010010160032000F075F80F20BA
:101B700000F006F800F024F8002010BD002002401C
:101B800070B50D4D04464FF47A712878B1FBF0F032
:101B90000A490968B1FBF0F000F0DCFA48B9102CF2
:101BA00007D200222146501E00F036F800206C605B
:101BB00070BD012070BD000008000020140000204E
:101BC0000C4808B5816941F001018161816901F02A
:101BD00001010091C16941F08051C161C06900F00B
:101BE000805000900448416821F0E06141F00071AC
:101BF000416008BD0010024000000140002809DBE0
:101C000000F01F02012191404009800000F1E02016
:101C1000C0F8001170470000F0B40E4B1B680C4672
:101C2000C3F30223C3F10705042D00D90425191DB0
:101C3000072901D2002300E0DB1E012606FA05F188
:101C4000491E214099409E40761E16403143F0BC0B
:101C500001F008B80CED00E0064900F00702086842
:101C60004FF6FF03184040EA0220034A1043086081
:101C7000704700000CED00E00000FA052DE9F04788
:101C80000F46050061D0434E306800F00700B842AF
:101C900009D2306820F0070038433060306800F027
:101CA0000700B84251D128683B4C810712D5400744
:101CB00003D5606840F4E06060602878000703D5D1
:101CC000606840F4605060606068A96820F0F000CF
:101CD000084360602878C00728D06868012810D0C1
:101CE0002168022810D0890700292EDA616821F0C6
:101CF000030101436160FFF755FC804641F28839DA
:101D00000DE021688903EFE78901EDE7FFF74AFC61
:101D1000A0EB0801494502D90320BDE8F0876068BF
:101D2000696800F00C00B0EB810FEFD1306800F073
:101D30000700B8420BD9306820F007003843306004
:101D4000306800F00700B84201D00120E5E72878AC
:101D5000400705D56068E96820F4E06008436060EA
:101D60002878000706D56068296920F4605040EAA9
:101D7000C100606000F038F86168084AC1F30311DF
:101D8000515CC8400649086006480068FFF7F8FE45
:101D90000020C2E700200240001002407433000817
:101DA000140000200C000020044805490068496820
:101DB000044AC1F30221515CC8407047140000205E
:101DC000001002408433000804480549006849684F
:101DD000044AC1F3C221515CC8407047140000207E
:101DE00000100240843300080E4A51680E4801F08A
:101DF0000C03042B11D0082B0FD10C48C1F38343E3
:101E0000C903C05C0AD55168084AC1F34041921E1B
:101E1000515C054A5043B0FBF1F070470449484318
:101E2000704700000010024000127A00643300087E
:101E300000093D002DE9F84F040070D02078C04D16
:101E4000C00749D06868C0F38100012807D06868DE
:101E5000C0F38100022809D16868C00306D528684C
:101E6000800339D560680028E7D035E06068B0F5B8
:101E7000803F0BD010B1B0F5A02F11D0286820F40E
:101E800080302860286820F4802002E0286840F430
:101E900080302860606890B1FFF784FB06460AE056
:101EA000286840F480202860F0E700BFFFF77AFB45
:101EB000801B642873D828688003F7D50CE0FFF7EF
:101EC00071FB064605E000BFFFF76CFB801B642832
:101ED000F0D828688003F7D420789A4E80074FF016
:101EE00001094FF0000839D5686810F00C0F07D0D1
:101EF0006868C0F38100022809D16868C00306D46D
:101F00002868800714D52069012808D110E02069CD
:101F1000B0B1C6F80090FFF745FB074605E00AE1BF
:101F2000FFF740FBC01B0228C4D828688007F7D5FC
:101F30002868616920F0F80040EAC10028600DE0DF
:101F4000C6F80080FFF72EFB074604E0FFF72AFBE8
:101F5000C01B022823D828688007F7D42078000700
:101F60002CD57948A169D9B1C0F80090FFF71AFBC8
:101F7000074604E0FFF716FBC01B02280FD8686A6B
:101F80008007F7D571484FF4FA510068B0FBF1F0C3
:101F9000009000BF0098411E0091FAD20EE080E050
:101FA000C0F80080FFF7FEFA074604E0FFF7FAFAF0
:101FB000C01B022875D8686A8007F7D420784007CC
:101FC00060D5E8690027C00008D4E86940F0805077
:101FD000E861E869012700F0805000905C480168E2
:101FE000C90513D40168834641F480710160FFF78D
:101FF000D9FA824606E000BFFFF7D4FAA0EB0A0048
:1020000064284ED8DBF80000C005F5D5E06801284B
:102010000AD008B1052813D0286A20F001002862F0
:10202000286A20F0040002E0286A40F001002862DB
:10203000E06841F2883B98B1FFF7B4FA82460BE0C2
:10204000286A40F004002862EEE700BFFFF7AAFA12
:10205000A0EB0A0159455AD8286A8007F6D50CE04A
:10206000FFF7A0FA824605E0FFF79CFAA0EB0A0111
:1020700059454CD8286A8007F6D41FB1E86920F08A
:102080008050E861E06988B36968C1F38101022981
:1020900044D00228C6F8608004D0FFF783FA0446D3
:1020A00038E034E0FFF77EFA074604E0FFF77AFAFB
:1020B000C01B02282BD828688001F7D4206AB0F50D
:1020C000803F05D16868A16820F40030084368604B
:1020D000D4E908010843696821F474110843686071
:1020E000C6F86090FFF75EFA044606E025E000BF00
:1020F000FFF758FA001B022809D828688001F7D595
:102100001BE000BFFFF74EFA001B022802D9032094
:10211000BDE8F88F28688001F4D40EE00128F7D0DC
:102120006868226A00F48031914204D1616A00F447
:102130007010884201D00120EAE70020E8E70000A3
:10214000001002400000424280044242140000207D
:102150000070004010B5401EB0F1807F01D3012017
:1021600010BD4FF0E02460610F21601700F07AFD90
:102170000020A06107202061002010BD70B5040080
:1021800004D094F84100002510B106E0012070BD94
:1021900084F84050204600F023F8242084F84100C1
:1021A0002068C16821F40051C160204600F0B0FCF5
:1021B0002068016921F4904101612068416921F0A2
:1021C0002A0141612068C16841F40051C160656421
:1021D000202084F8410084F842006563002070BD2F
:1021E00030B585B0002400940194029403940068F3
:1021F0001449884224D11448816941F480418161A5
:10220000816901F480410491816941F00401816197
:1022100080690E4D00F0040004904FF400700090AF
:10222000022001900320039069462846FFF7C4F876
:102230002815CDE90004694628460294FFF7BCF84A
:1022400005B030BD003801400010024000080140D8
:102250002DE9F843044690F84100984616460D468D
:10226000202802D00220BDE8F88385B17EB100208D
:102270006064212084F84100FFF794F9A684814628
:10228000E684A0682027B0F5805F02D003E001203B
:10229000E9E7206910B12E4600250EE000260CE08B
:1022A0008021204600F090FCA8B9C6B116F8010BB9
:1022B00021684860E08C401EE084E08C4B464FF083
:1022C0000002CDF800800028EAD14FF040012046FE
:1022D00000F07AFC40B184F841700320C3E735F880
:1022E000020BC0F30800E3E784F841700020BAE76E
:1022F000FEE701684A69D24352050FD46FF4806249
:102300004A61002140F8301F202242738173026924
:1023100042F00402026101730120704700207047FF
:102320002DE9F84F0446C06A1E4693460D462168C3
:102330000A6842F480620A60082807D0012805D0A4
:1023400010F5803F02D0206B112804D1206801686D
:1023500041F4807101604FF001195B46002249464B
:102360002046009600F0CCF84FF4007840B1206889
:102370000068C00501D5C4F840800320BDE8F88F8F
:102380002069DFF884A0B0F5804F0FD006202168C7
:1023900000EAD51747F0F000086133465A460AF1C3
:1023A0000601204600F0F4F858BB03E0E8B240F024
:1023B00001001CE02168E8B2086133465A465146E4
:1023C000204600F0E5F8E0B9206841698169009194
:1023D000016841F4807101605B4600224946204655
:1023E000009600F08DF80028C1D147F0F100216877
:1023F000086133465A465146204600F0C9F8002885
:10240000BCD00120BAE7000002000100F8B5044684
:10241000C06A1E460D461746082807D0012805D079
:1024200010F5803F02D0206B122804D1206801688B
:1024300041F480710160134600224FF001112046E3
:10244000009600F05DF840B120680068C00502D534
:102450004FF4007020640320F8BD2069B0F5804F70
:102460000ED00620216800EAD51040F0F000086187
:1024700033463A460B49204600F08AF878B902E024
:1024800005F0FE0000E0E8B2216808610549334626
:102490003A46891F204600F07BF80028DCD0012056
:1024A000F8BD00000800010070B516460D46044650
:1024B0001EE02046FFF71DFF08B1012070BD681C1B
:1024C00016D0FFF76FF8801BA84200D885B92068A6
:1024D0004069C04340070BD5002044F8300F20214D
:1024E0006173A073216941F0200121612073E4E749
:1024F00020684069C0434007DBD4002070BD000065
:102500002DE9F047984617460D460446C1F30746A5
:10251000DDF820902AE000BFB8F1FF3F26D0FFF79A
:1025200041F8A0EB0901414502D8B8F1000F1DD1D7
:102530002068012E16D0806925EA00000004000CF6
:1025400012D00020B84211D1002044F8300F2021D1
:102550006173A073216941F0200121612073012082
:10256000BDE8F0874069E7E70120EBE72068012E2E
:102570000AD0806925EA00000004000C06D0002083
:10258000B842C9D00020EBE74069F3E70120F7E744
:102590002DE9F047984616460D4604464FF00009CF
:1025A0004FF0200AC1F3074723E020684069C04389
:1025B000400515D42068016841F40071016021686C
:1025C0006FF480604861C4F8309084F83DA084F8CE
:1025D0003E90216C41F00401216484F83C9021E09C
:1025E000701C06D0FEF7DEFFA0EB0800B04203D857
:1025F00016B1012F1FD021E02068012F15D080696E
:1026000025EA00000004000C18D000BF44F8309FF9
:1026100084F80DA084F80E90216941F02001216119
:1026200084F80C900120BDE8F087406925EA00009D
:102630000004000CEAD12068406901E0206880694C
:1026400025EA00000004000CAFD1ECE72DE9F041D1
:10265000002590460E460446202728E04069C043E6
:10266000C0060CD454F8301B6FF01000486144F8D9
:1026700010596777A577206A2062257714E0FEF766
:1026800091FFA0EB0800B04200D886B920684069ED
:10269000C04340060BD544F8305F6773A5732069CB
:1026A00040F02000206125730120BDE8F081206802
:1026B0004169C9434906D1D40020F6E770B51646F2
:1026C0000D4604461EE02046FFF713FE08B1012028
:1026D00070BD681C16D0FEF765FF801BA84200D8AD
:1026E00085B920684069C04300060BD5002044F836
:1026F000300F20216173A073216941F02001216115
:102700002073E4E720684069C0430006DBD4002062
:1027100070BD000000B585B00020029003901648FF
:10272000816941F020018161816901F020010491FA
:10273000816941F008018161816901F0080104911A
:10274000816941F0040181618069694600F00400FB
:1027500004904FF400600090084801900848FEF78C
:102760002BFE002211462820FFF756FA2820FFF7FB
:1027700045FA05B000BD0000001002400000311015
:10278000000801400D4810B50B4901600C4941603B
:1027900000214FF480428160C0E9031241618161F0
:1027A000C1610162FEF704FF002803D0BDE81040BC
:1027B000FEF7C2BD10BD0000005400402000002004
:1027C000A08601000D4810B50B4901600C4941601D
:1027D00000214FF480428160C0E9031241618161B0
:1027E000C1610162FEF7E4FE002803D0BDE810409D
:1027F000FEF7A2BD10BD000000580040740000208C
:10280000A08601000C4810B50A4901604FF4E1317F
:102810004160002181600C22C160C0E90412816125
:10282000C161FFF7ABFC002803D0BDE81040FEF704
:1028300083BD10BD00380140C8000020FEE7FEE760
:1028400070B500240021204600F068F80025002023
:1028500000F0EEF86D1CEDB2802DF8D3641CE4B2EC
:10286000082CEFD370BD10B500204FF47A72002110
:10287000491C9142FCD3401C9042F8D3AE2000F09A
:10288000C7F8D52000F0C4F8802000F0C1F8A820D7
:1028900000F0BEF83F2000F0BBF8D32000F0B8F8FD
:1028A000002000F0B5F8402000F0B2F8A12000F0C0
:1028B000AFF8C82000F0ACF8DA2000F0A9F8122038
:1028C00000F0A6F8812000F0A3F8CF2000F0A0F8D7
:1028D000D92000F09DF8F12000F09AF8DB2000F0FC
:1028E00097F8302000F094F8A42000F091F8A6208A
:1028F00000F08EF88D2000F08BF8142000F088F89E
:10290000AF2000F085F8BDE81040FFF799BF024600
:10291000012000E05043491EFCD2704710B50C4620
:1029200040F0B00000F074F8102040EA141000F0FD
:102930006FF804F00F00BDE8104000F069B8000027
:102940002DE9F0410746CE004000083E801E1546A6
:102950004FF0FF38F1B2C0B2FFF7E0FF114800249A
:1029600000EB05152819A0F5805090F8000E00F036
:102970005FF8641CE4B2082CF4D308EB4700F1B212
:10298000C0B2FFF7CBFF00242819A0F5805090F8C3
:10299000080E00F04DF8641CE4B2082CF4D3BDE836
:1029A000F08100008C3300082DE9F04700241D461B
:1029B0001646884681460A2713E0291B0A20491E2D
:1029C000FFF7A5FFB6FBF0F0B0FBF7F107FB110234
:1029D00008EB0400C1B248463032FFF7B1FF641C77
:1029E000E4B2AC42E9D3BDE8F0872DE9F0411546E9
:1029F0000E460746002406E03019C1B23846FFF7FC
:102A00009FFF641CE4B22A5D002AF5D1BDE8F08185
:102A10001CB5002101918DF805000A2000900223C9
:102A200001AA78210148FEF7AFFF1CBD200000205D
:102A30001CB507A10223096801918DF805000A2041
:102A4000009001AA78210348FEF79EFF1CBD0000FC
:102A5000400000002000002070477047FFF776B864
:102A600030B58FB028216846FDF74FFC14210AA825
:102A7000FDF74BFC01210804CDE90010002402946D
:102A800002250491CDE907504FF4E0100990684603
:102A9000FFF7D0F908B172B6FEE70F20CDE90A05BD
:102AA0004FF48060CDE90C4002210AA80E94FFF794
:102AB000E5F8002801D072B6FEE70FB030BD7047D0
:102AC00001680C3151E8002F22F4907241E8002394
:102AD000002BF5D10168143151E8002F22F00102DA
:102AE00041E80023002BF5D1016B012909D10168D0
:102AF0000C3151E8002F22F0100241E80023002B96
:102B0000F5D1202180F842100021016370470000B8
:102B100070B5044600680169E26821F44051114330
:102B200001612169A0680843616908432168CA6896
:102B300041F20C639A430243CA6020684169A2696A
:102B400021F44071114341611E492068884202D13D
:102B5000FFF73AF901E0FFF727F900EBC00101EBBD
:102B60000012606864218000B2FBF0F3B3FBF1F364
:102B70006FF018067343B2FBF0F5B2FBF0F605EB0D
:102B80008305322303EB0515B5FBF1F5B6FBF1F632
:102B900005F0F00505EB0615B2FBF0F6B2FBF0F020
:102BA000B0FBF1F06FF01802504306EB800003EB2E
:102BB0000010B0FBF1F0216800F00F00284488609D
:102BC00070BD0000003801402DE9F84398461746D3
:102BD0000D460446089E24E0701C22D0FEF7E2FC5D
:102BE000A0EB0800B0421AD8CEB12068C1684907EE
:102BF00017D5802D15D0402D13D00168C943090782
:102C00000FD401680025406800902046FFF758FF68
:102C10000820606484F840500120BDE8F883032058
:102C2000FBE72068006835EA000004D00020B842C5
:102C3000D2D00020F1E70120F9E7FEE7490050EA91
:102C4000C12018BF04204A0D18BF40F0010040F217
:102C5000FF72B2EB515F08BF40F00200012808BFCD
:102C6000052070470907090E002804DB00F1E02069
:102C700080F80014704700F00F0000F1E02080F8A9
:102C8000141D704730380A2801D2012070470020F7
:102C90007047704738B504468DF8000002230122C2
:102CA00069460248FFF7D4FA204638BDC800002024
:102CB000FEF754FFFFF7D4FEFFF72CFDFFF762FD90
:102CC000FFF7A0FDFFF77EFDFFF7CDFD404D4FF470
:102CD0007A782878002860D101213EA20846FFF7C3
:102CE00084FE41A201210220FFF77FFE40A20121C4
:102CF0000320FFF77AFEFEF7A7FA3F4C206800F0AA
:102D00004DF90246022305211846FFF74DFE3BA26E
:102D100007210220FFF769FE2068394F394600F08D
:102D20006DF900F03BF90646206800F037F96FF0C6
:102D30001801484306EB8002022308211846FFF7DA
:102D400033FE606800F02AF90246022305210320C1
:102D5000FFF72AFE29A207210320FFF746FE60683D
:102D6000394600F04BF900F019F90646606800F0AA
:102D700015F96FF01801484306EB80020223082181
:102D80000320FFF711FE1FA20A210320FFF72DFEEB
:102D900010A201210420FFF728FE2878012813D172
:102DA000012119A20846FFF720FE1AA201210220E4
:102DB000FFF71BFE1BA201210320FFF716FE1BA23B
:102DC00001210420FFF711FE4046FEF7B7FA80E725
:102DD000000000202F2A2A2A2A2A2A2A2A2A2A2AD6
:102DE0002A2A2A2F0000000054656D3A00000000D6
:102DF0002052483A00000000180000202E00000079
:102E00000000C8422500000048617264202620535B
:102E10006F66740044657369676E696E67206279D6
:102E2000000000004C59646F6E670000323032358C
:102E30002F30342F32332056312E300010B5002978
:102E40000AD00878002807D005487844FDF7F4FD3B
:102E5000002801D0002010BD0248784410BD0000B9
:102E6000E60B0000DE0B00000808A0F500114FEA99
:102E70003101704743004FEAD30C4FEA3C0C43400A
:102E80001FBF40070CF1605113F0FE4F70471CF05C
:102E9000006F03D100200CF0004170470CF000439C
:102EA00043EA507010B540EACC0000F028F900BFAA
:102EB000000000924FEA0001FFF7D6BF4FF000413B
:102EC0004FF00000A1F500217047000090EA010FCB
:102ED00048BF81F0004100F16481421A3CBF801A72
:102EE00089184FEAD0524FF07F4C1CEA410FA2EBF9
:102EF000D15318BF9CEA026F00F03B804FF0004CAA
:102F00004CEA00204CEA012121FA03FC10EB0C0CE6
:102F10001ED202F1FF325FEA1C2040EBC25038BFE4
:102F200070471CF07F0F4FEA400C18BFBCF17F4F79
:102F300038BF7047C3F12003994008BF20F001005B
:102F4000BCF17F4F38BF7047A0F1C04000F01DB901
:102F50004FEA3C00000A40EBC25028BF1CF0FF0FB4
:102F60004FEA400CE6D018BFBCF17F4F38BF704726
:102F7000EAE79CEA026F05D010EA5C0F08BF00F098
:102F80000040704710B500F0BAF800BF64FBBE3EC9
:102F9000014800F076B900BF0000C07F41000B0E71
:102FA000D3F19E0208D950F400034FEA032323FA19
:102FB00002F048BF4042704710B500F0A0F800BFD3
:102FC00049922480002070476FF0004282EA20007E
:102FD00070470000B0FA80F310FA03F2C3F19D03CA
:102FE0000AD0D90501EB1220530638BF704700F113
:102FF000010008BF20F00100704700004FF47F0C73
:103000001CEAD0121EBF1CEAD11392EA0C0F93EAFD
:103010000C0F00F0478090EA010F48BF42F4807225
:103020004FF0004C4CEA00204CEA012102EB030275
:10303000A0FB0113A2F50002002918BF43F0010311
:103040005B0028BF4FEA330342EB22425FEA132CB6
:103050004CEBC2502EBFBCEB436FB2F57C0F7047F8
:103060004FEA036CBCF1004F08BF20F00100B2F53D
:103070007C0F38BF70470BD582F0FF0212F5803FFE
:10308000C8BF704700F1C040D8BF00F00040704793
:1030900000F5000C5FEA4C0C48BF7047B0F1C0402F
:1030A00000F073B890EA010F0CEAD11348BF42F464
:1030B0008072624538BF634504D280EA010000F0A7
:1030C0000040704710B500F01AF800BF8900013EBB
:1030D00000F007B800F009B85FEA410C5FEA1C6C29
:1030E00008D080EA010000F050B85FEA400C5FEAC7
:1030F0001C6CF6D14FF00040A0F5800070470EF137
:10310000020E2EF0030E5EF8044B244204D44FEA64
:103110004102B2F17F4F11D84FEA4003B3F17F4F24
:103120000CD80ED14FEAD07CB2F17F4F0CEB4C0C97
:103130000CF1020C08BF4CEBD17C04E04FF0080C02
:1031400001E04FEAD17C0CEB4C0324FA03F404F0C9
:103150000704B4F1040C06D20EEB840CBDE8104059
:103160004CF0010C6047DFE80CF0070802024FF05A
:103170000040A0F5800010BD0846420018BFD2F103
:10318000807288BF00F0004010BDFF2141EAD0509E
:10319000C005704790EA010F48BF81F000413FF53C
:1031A0009CAE421A04D882F00042A0EB0200114407
:1031B0004FEAD0524FF07F4C1CEA410FA2EBD153A3
:1031C00018BF9CEA026F4AD04FF0004C4CEA002036
:1031D0004CEA012121FA03FCB0EB0C0C0FD412F0E5
:1031E000FE0F36D05FEA4C001DD5001240EBC250F6
:1031F00038BF70471CF03F0F18BF70470BE0A2F1BB
:1032000001025FEA1C2040EBC25038BF70471CF03F
:103210007F0F18BF7047C3F12003994014BF401EB1
:1032200020F00100704780084FEA122308BF704762
:10323000B0FA80FCA2EB0C02CCF1280C60FA0CF086
:1032400093EA122F04BF00EBC25070474FEAC370DD
:103250007047130A5FEADC1008BF7047F6E79CEA84
:10326000026F04D010EA5C0F08BF0020704710B551
:10327000FFF745FF40DFF63E81F000407047FDF765
:1032800048B90CF00F03092B08BF082000F051804B
:103290000A2B0BD0082B18BF704708BF1CF0400F3B
:1032A0000AD04FF000004FF0000170471CF0400FB3
:1032B00018BF4FF0004070471CF0100F08D020F0EE
:1032C000704300F07F4242EAD3014FEA43707047F7
:1032D00000F0604021F07F4242EA000201F07F40AE
:1032E00040EA727070474FF0FF0212EAD0521CBFE2
:1032F00092F0FF038B42C2BFD14200EBC150704736
:10330000002A0AD0002B0BD0002900F00040A4BFF7
:1033100040F0FE4040F40000704700F0004070476D
:1033200043024FF00B0C18BF4CF0806C7FF430AEB2
:1033300070471CF4801F11D01CF4E02F03D06FEAFB
:10334000CC31490070474FF04050EFF3008222F03B
:10335000704242EA000282F3008870474FF000009A
:103360007047010202030405060708090A0B0C0D49
:103370000E0F101000000000000000000102030406
:103380000607080900000000010203040000000015
:10339000000000000000000000000000000000F835
:1033A00000000000000000333000000000100C0698
:1033B000100C0600000000000000000040C0784033
:1033C000C0784000043F04043F040400007088FCFF
:1033D00008300000001820FF211E0000F008F00057
:1033E000E018000000211C031E211E0000F00888C8
:1033F000700000001E2123241927211010160E0032
:10340000000000000000000000000000000000E0DC
:1034100018040200000000071820400000020418F1
:10342000E00000000040201807000000404080F04D
:10343000804040000202010F01020200000000F083
:10344000000000000101011F010101000000000057
:103450000000000080B070000000000000000000CC
:103460000000000000010101010101010000000055
:1034700000000000003030000000000000000000EC
:1034800080601804006018060100000000E01008C9
:103490000810E000000F102020100F00001010F89E
:1034A000000000000020203F2020000000700808DD
:1034B000088870000030282422213000003008885D
:1034C000884830000018202020110E000000C02085
:1034D00010F8000000070424243F240000F80888A6
:1034E000880808000019212020110E0000E0108833
:1034F00088180000000F112020110E000038080865
:10350000C83808000000003F000000000070880874
:1035100008887000001C222121221C0000E01008F5
:103520000810E0000000312222110F00000000C04E
:10353000C0000000000000303000000000000080EB
:1035400000000000000080600000000000008040DB
:1035500020100800000102040810200040404040F4
:103560004040400004040404040404000008102047
:10357000408000000020100804020100007048088C
:103580000808F0000000003036010000C030C828F4
:10359000E810E0000718272423140B000000C038AF
:1035A000E0000000203C23020227382008F8888829
:1035B00088700000203F202020110E00C030080835
:1035C00008083800071820202010080008F808080C
:1035D0000810E000203F202020100F0008F8888805
:1035E000E8081000203F20202320180008F88888D1
:1035F000E8081000203F200003000000C030080849
:103600000838000007182020221E020008F80800D1
:103610000008F808203F210101213F20000808F898
:10362000080800000020203F2020000000000808BB
:10363000F8080800C08080807F00000008F888C07B
:1036400028180800203F20012638200008F808002C
:1036500000000000203F20202020300008F8F80063
:10366000F8F80800203F003F003F200008F830C075
:103670000008F808203F200007183F00E010080865
:103680000810E0000F10202020100F0008F8080894
:103690000808F000203F210101010000E0100808A7
:1036A0000810E0000F18242438504F0008F88888CC
:1036B00088887000203F2000030C302000708808AC
:1036C000080838000038202121221C00180808F8BA
:1036D000080818000000203F2000000008F808003B
:1036E0000008F808001F202020201F00087888000C
:1036F00000C83808000007380E010000F80800F87C
:103700000008F800033C0700073C03000818688025
:103710008068180820302C03032C30200838C8009B
:10372000C83808000000203F2000000010080808EA
:10373000C83808002038262120201800000000FE8C
:10374000020202000000007F40404000000C30C038
:1037500000000000000000010638C0000002020264
:10376000FE000000004040407F0000000000040216
:103770000202040000000000000000000000000041
:103780000000000080808080808080800002020431
:103790000000000000000000000000000000808029
:1037A000808000000019242222223F2008F8008097
:1037B00080000000003F112020110E00000000805A
:1037C00080800000000E11202020110000000080E9
:1037D0008088F800000E112020103F20000080801B
:1037E00080800000001F222222221300008080F02F
:1037F000888888180020203F20200000000080805A
:1038000080808000006B94949493600008F800809E
:1038100080800000203F210000203F2000809898F9
:10382000000000000020203F202000000000008059
:103830009898000000C08080807F000008F8000099
:1038400080808000203F24022D302000000808F8EE
:10385000000000000020203F2020000080808080A9
:1038600080808000203F20003F20003F808000803B
:1038700080800000203F210000203F200000808049
:1038800080800000001F202020201F0080800080FA
:103890008000000080FFA12020110E0000000080A9
:1038A00080808000000E112020A0FF80808080009A
:1038B0008080800020203F212000010000008080C7
:1038C000808080000033242424241900008080E0BC
:1038D000808000000000001F202000008080000089
:1038E00000808000001F202020103F20808080006A
:1038F0000080808000010E3008060100808000807A
:10390000008080800F300C030C300F00008080009E
:10391000808080000020312E0E31200080808000C9
:103920000080808080818E70180601000080808079
:10393000808080000021302C222130000000000017
:10394000807C020200000000003F404000000000B8
:10395000FF00000000000000FF0000000002027CE9
:10396000800000000040403F000000000006010110
:1039700002020404000000000000000002400000F9
:10398000000000A00000000005400000000000C88A
:10399000000000000C4000000000409C00000000FF
:1039A000194000000020BCBE0000000034400000B0
:1039B000BFC91B8E00000004B5400000504BCFD0A3
:1039C0006607E2CF010000006C4100003E8251AA70
:1039D000DFEEA73401000000D9420000DCB5A0E210
:1039E0003A301F97FFFFFFFFB4450000FD25A0C838
:1039F000E9A3C14FFFFFFFFFFF3F00000000008071
:103A000000000000FF3F00000000008000000000F8
:103A10004C3A0008000000202000000028010008A7
:103A20006C3A000820000020500700004401000804
:103A30001C00000043000000F8FFFFFF0C00000026
:103A40000E0000000F0000002E000000000000002B
:103A50000000000001000000100000000000000055
:0C3A600000127A000000000000000000CE
:04000005080000ED02
:00000001FF
